{"abi":[{"type":"constructor","inputs":[{"name":"_wormhole","type":"address","internalType":"address"}],"stateMutability":"nonpayable"},{"type":"function","name":"ADMIN_ROLE","inputs":[],"outputs":[{"name":"","type":"bytes32","internalType":"bytes32"}],"stateMutability":"view"},{"type":"function","name":"BRIDGE_ROLE","inputs":[],"outputs":[{"name":"","type":"bytes32","internalType":"bytes32"}],"stateMutability":"view"},{"type":"function","name":"DEFAULT_ADMIN_ROLE","inputs":[],"outputs":[{"name":"","type":"bytes32","internalType":"bytes32"}],"stateMutability":"view"},{"type":"function","name":"getRoleAdmin","inputs":[{"name":"role","type":"bytes32","internalType":"bytes32"}],"outputs":[{"name":"","type":"bytes32","internalType":"bytes32"}],"stateMutability":"view"},{"type":"function","name":"grantRole","inputs":[{"name":"role","type":"bytes32","internalType":"bytes32"},{"name":"account","type":"address","internalType":"address"}],"outputs":[],"stateMutability":"nonpayable"},{"type":"function","name":"hasRole","inputs":[{"name":"role","type":"bytes32","internalType":"bytes32"},{"name":"account","type":"address","internalType":"address"}],"outputs":[{"name":"","type":"bool","internalType":"bool"}],"stateMutability":"view"},{"type":"function","name":"pause","inputs":[],"outputs":[],"stateMutability":"nonpayable"},{"type":"function","name":"paused","inputs":[],"outputs":[{"name":"","type":"bool","internalType":"bool"}],"stateMutability":"view"},{"type":"function","name":"paymentManager","inputs":[],"outputs":[{"name":"","type":"address","internalType":"address"}],"stateMutability":"view"},{"type":"function","name":"renounceRole","inputs":[{"name":"role","type":"bytes32","internalType":"bytes32"},{"name":"callerConfirmation","type":"address","internalType":"address"}],"outputs":[],"stateMutability":"nonpayable"},{"type":"function","name":"revokeRole","inputs":[{"name":"role","type":"bytes32","internalType":"bytes32"},{"name":"account","type":"address","internalType":"address"}],"outputs":[],"stateMutability":"nonpayable"},{"type":"function","name":"sendCrossChain","inputs":[{"name":"token","type":"address","internalType":"address"},{"name":"amount","type":"uint256","internalType":"uint256"},{"name":"recipientChain","type":"uint16","internalType":"uint16"},{"name":"recipient","type":"bytes32","internalType":"bytes32"},{"name":"nonce","type":"uint32","internalType":"uint32"}],"outputs":[{"name":"","type":"uint64","internalType":"uint64"}],"stateMutability":"payable"},{"type":"function","name":"setPaymentManager","inputs":[{"name":"_paymentManager","type":"address","internalType":"address"}],"outputs":[],"stateMutability":"nonpayable"},{"type":"function","name":"setWormhole","inputs":[{"name":"_wormhole","type":"address","internalType":"address"}],"outputs":[],"stateMutability":"nonpayable"},{"type":"function","name":"supportsInterface","inputs":[{"name":"interfaceId","type":"bytes4","internalType":"bytes4"}],"outputs":[{"name":"","type":"bool","internalType":"bool"}],"stateMutability":"view"},{"type":"function","name":"unpause","inputs":[],"outputs":[],"stateMutability":"nonpayable"},{"type":"function","name":"wormhole","inputs":[],"outputs":[{"name":"","type":"address","internalType":"contract IWormholeBridge"}],"stateMutability":"view"},{"type":"event","name":"CrossChainPaymentInitiated","inputs":[{"name":"sender","type":"address","indexed":true,"internalType":"address"},{"name":"token","type":"address","indexed":true,"internalType":"address"},{"name":"amount","type":"uint256","indexed":false,"internalType":"uint256"},{"name":"recipientChain","type":"uint16","indexed":false,"internalType":"uint16"},{"name":"recipient","type":"bytes32","indexed":false,"internalType":"bytes32"},{"name":"sequence","type":"uint64","indexed":false,"internalType":"uint64"}],"anonymous":false},{"type":"event","name":"Paused","inputs":[{"name":"account","type":"address","indexed":false,"internalType":"address"}],"anonymous":false},{"type":"event","name":"RoleAdminChanged","inputs":[{"name":"role","type":"bytes32","indexed":true,"internalType":"bytes32"},{"name":"previousAdminRole","type":"bytes32","indexed":true,"internalType":"bytes32"},{"name":"newAdminRole","type":"bytes32","indexed":true,"internalType":"bytes32"}],"anonymous":false},{"type":"event","name":"RoleGranted","inputs":[{"name":"role","type":"bytes32","indexed":true,"internalType":"bytes32"},{"name":"account","type":"address","indexed":true,"internalType":"address"},{"name":"sender","type":"address","indexed":true,"internalType":"address"}],"anonymous":false},{"type":"event","name":"RoleRevoked","inputs":[{"name":"role","type":"bytes32","indexed":true,"internalType":"bytes32"},{"name":"account","type":"address","indexed":true,"internalType":"address"},{"name":"sender","type":"address","indexed":true,"internalType":"address"}],"anonymous":false},{"type":"event","name":"Unpaused","inputs":[{"name":"account","type":"address","indexed":false,"internalType":"address"}],"anonymous":false},{"type":"error","name":"AccessControlBadConfirmation","inputs":[]},{"type":"error","name":"AccessControlUnauthorizedAccount","inputs":[{"name":"account","type":"address","internalType":"address"},{"name":"neededRole","type":"bytes32","internalType":"bytes32"}]},{"type":"error","name":"EnforcedPause","inputs":[]},{"type":"error","name":"ExpectedPause","inputs":[]}],"bytecode":{"object":"0x608060405234801561000f575f5ffd5b50604051610e3e380380610e3e83398101604081905261002e9161018d565b6001600160a01b0381166100885760405162461bcd60e51b815260206004820152601860248201527f496e76616c696420776f726d686f6c6520616464726573730000000000000000604482015260640160405180910390fd5b60018054610100600160a81b0319166101006001600160a01b038416021790556100b25f336100e4565b506100dd7fa49807205ce4d355092ef5a8a18f56e8913cf4a201fbe287825b095693c21775336100e4565b50506101ba565b5f828152602081815260408083206001600160a01b038516845290915281205460ff16610184575f838152602081815260408083206001600160a01b03861684529091529020805460ff1916600117905561013c3390565b6001600160a01b0316826001600160a01b0316847f2f8788117e7eff1d82e926ec794901d17c78024a50270940304540a733656f0d60405160405180910390a4506001610187565b505f5b92915050565b5f6020828403121561019d575f5ffd5b81516001600160a01b03811681146101b3575f5ffd5b9392505050565b610c77806101c75f395ff3fe6080604052600436106100fa575f3560e01c80638456cb5911610092578063a217fddf11610062578063a217fddf146102b3578063aee1fe49146102c6578063b5bfddea146102e5578063d49f53b814610318578063d547741f14610337575f5ffd5b80638456cb591461021857806384acd1bb1461022c578063852552ff1461026857806391d1485414610294575f5ffd5b80633f4ba83a116100cd5780633f4ba83a146101ae5780635c975abb146101c257806375b238fc146101d95780637e702dc8146101f9575f5ffd5b806301ffc9a7146100fe578063248a9ca3146101325780632f2ff15d1461016e57806336568abe1461018f575b5f5ffd5b348015610109575f5ffd5b5061011d610118366004610ad1565b610356565b60405190151581526020015b60405180910390f35b34801561013d575f5ffd5b5061016061014c366004610aff565b5f9081526020819052604090206001015490565b604051908152602001610129565b348015610179575f5ffd5b5061018d610188366004610b31565b61038c565b005b34801561019a575f5ffd5b5061018d6101a9366004610b31565b6103b6565b3480156101b9575f5ffd5b5061018d6103ee565b3480156101cd575f5ffd5b5060015460ff1661011d565b3480156101e4575f5ffd5b506101605f516020610c225f395f51905f5281565b348015610204575f5ffd5b5061018d610213366004610b5b565b610410565b348015610223575f5ffd5b5061018d610497565b348015610237575f5ffd5b506001546102509061010090046001600160a01b031681565b6040516001600160a01b039091168152602001610129565b61027b610276366004610b74565b6104b6565b60405167ffffffffffffffff9091168152602001610129565b34801561029f575f5ffd5b5061011d6102ae366004610b31565b6107e8565b3480156102be575f5ffd5b506101605f81565b3480156102d1575f5ffd5b50600254610250906001600160a01b031681565b3480156102f0575f5ffd5b506101607f52ba824bfabc2bcfcdf7f0edbb486ebb05e1836c90e78047efeb949990f72e5f81565b348015610323575f5ffd5b5061018d610332366004610b5b565b610810565b348015610342575f5ffd5b5061018d610351366004610b31565b610898565b5f6001600160e01b03198216637965db0b60e01b148061038657506301ffc9a760e01b6001600160e01b03198316145b92915050565b5f828152602081905260409020600101546103a6816108bc565b6103b083836108c6565b50505050565b6001600160a01b03811633146103df5760405163334bd91960e11b815260040160405180910390fd5b6103e98282610955565b505050565b5f516020610c225f395f51905f52610405816108bc565b61040d6109be565b50565b5f516020610c225f395f51905f52610427816108bc565b6001600160a01b0382166104745760405162461bcd60e51b815260206004820152600f60248201526e496e76616c6964206164647265737360881b60448201526064015b60405180910390fd5b50600280546001600160a01b0319166001600160a01b0392909216919091179055565b5f516020610c225f395f51905f526104ae816108bc565b61040d610a10565b5f6104bf610a4b565b6002546001600160a01b031633146105195760405162461bcd60e51b815260206004820152601c60248201527f43616c6c6572206973206e6f74205061796d656e744d616e6167657200000000604482015260640161046b565b5f851161055d5760405162461bcd60e51b81526020600482015260126024820152710416d6f756e74206d757374206265203e20360741b604482015260640161046b565b6001600160a01b0386166105ac5760405162461bcd60e51b8152602060048201526016602482015275151bdad95b881859191c995cdcc81c995c5d5a5c995960521b604482015260640161046b565b6040516323b872dd60e01b8152336004820152306024820152604481018690525f906001600160a01b038816906323b872dd906064016020604051808303815f875af11580156105fe573d5f5f3e3d5ffd5b505050506040513d601f19601f820116820180604052508101906106229190610bdb565b9050806106695760405162461bcd60e51b8152602060048201526015602482015274151bdad95b881d1c985b9cd9995c8819985a5b1959605a1b604482015260640161046b565b60015460405163095ea7b360e01b81526101009091046001600160a01b0390811660048301526024820188905288169063095ea7b3906044016020604051808303815f875af11580156106be573d5f5f3e3d5ffd5b505050506040513d601f19601f820116820180604052508101906106e29190610bdb565b5060015460405163a084175360e01b81526001600160a01b0389811660048301526024820189905261ffff881660448301526064820187905263ffffffff861660848301525f926101009004169063a08417539060a4016020604051808303815f875af1158015610755573d5f5f3e3d5ffd5b505050506040513d601f19601f820116820180604052508101906107799190610bfa565b6040805189815261ffff8916602082015290810187905267ffffffffffffffff821660608201529091506001600160a01b0389169033907f4b88ca2b032f9c99726d692c04f09080f50f5deef548b54e73376f350662b6539060800160405180910390a3979650505050505050565b5f918252602082815260408084206001600160a01b0393909316845291905290205460ff1690565b5f516020610c225f395f51905f52610827816108bc565b6001600160a01b03821661086f5760405162461bcd60e51b815260206004820152600f60248201526e496e76616c6964206164647265737360881b604482015260640161046b565b50600180546001600160a01b0390921661010002610100600160a81b0319909216919091179055565b5f828152602081905260409020600101546108b2816108bc565b6103b08383610955565b61040d8133610a71565b5f6108d183836107e8565b61094e575f838152602081815260408083206001600160a01b03861684529091529020805460ff191660011790556109063390565b6001600160a01b0316826001600160a01b0316847f2f8788117e7eff1d82e926ec794901d17c78024a50270940304540a733656f0d60405160405180910390a4506001610386565b505f610386565b5f61096083836107e8565b1561094e575f838152602081815260408083206001600160a01b0386168085529252808320805460ff1916905551339286917ff6391f5c32d9c69d2a47ea670b442974b53935d1edc7fd64eb21e047a839171b9190a4506001610386565b6109c6610aae565b6001805460ff191690557f5db9ee0a495bf2e6ff9c91a7834c1ba4fdd244a5e8aa4e537bd38aeae4b073aa335b6040516001600160a01b03909116815260200160405180910390a1565b610a18610a4b565b6001805460ff1916811790557f62e78cea01bee320cd4e420270b5ea74000d11b0c9f74754ebdbfc544b05a258336109f3565b60015460ff1615610a6f5760405163d93c066560e01b815260040160405180910390fd5b565b610a7b82826107e8565b610aaa5760405163e2517d3f60e01b81526001600160a01b03821660048201526024810183905260440161046b565b5050565b60015460ff16610a6f57604051638dfc202b60e01b815260040160405180910390fd5b5f60208284031215610ae1575f5ffd5b81356001600160e01b031981168114610af8575f5ffd5b9392505050565b5f60208284031215610b0f575f5ffd5b5035919050565b80356001600160a01b0381168114610b2c575f5ffd5b919050565b5f5f60408385031215610b42575f5ffd5b82359150610b5260208401610b16565b90509250929050565b5f60208284031215610b6b575f5ffd5b610af882610b16565b5f5f5f5f5f60a08688031215610b88575f5ffd5b610b9186610b16565b945060208601359350604086013561ffff81168114610bae575f5ffd5b925060608601359150608086013563ffffffff81168114610bcd575f5ffd5b809150509295509295909350565b5f60208284031215610beb575f5ffd5b81518015158114610af8575f5ffd5b5f60208284031215610c0a575f5ffd5b815167ffffffffffffffff81168114610af8575f5ffdfea49807205ce4d355092ef5a8a18f56e8913cf4a201fbe287825b095693c21775a2646970667358221220a5739d4a05dd7beef93dc00d53b2dddcaf887b29ec5dbb2baff68c55f32115f664736f6c634300081c0033","linkReferences":{}},"methodIdentifiers":{"ADMIN_ROLE()":"75b238fc","BRIDGE_ROLE()":"b5bfddea","DEFAULT_ADMIN_ROLE()":"a217fddf","getRoleAdmin(bytes32)":"248a9ca3","grantRole(bytes32,address)":"2f2ff15d","hasRole(bytes32,address)":"91d14854","pause()":"8456cb59","paused()":"5c975abb","paymentManager()":"aee1fe49","renounceRole(bytes32,address)":"36568abe","revokeRole(bytes32,address)":"d547741f","sendCrossChain(address,uint256,uint16,bytes32,uint32)":"852552ff","setPaymentManager(address)":"7e702dc8","setWormhole(address)":"d49f53b8","supportsInterface(bytes4)":"01ffc9a7","unpause()":"3f4ba83a","wormhole()":"84acd1bb"},"id":1}