{"abi":[{"type":"constructor","inputs":[{"name":"_bridge","type":"address","internalType":"address"}],"stateMutability":"nonpayable"},{"type":"function","name":"bridge","inputs":[],"outputs":[{"name":"","type":"address","internalType":"contract BridgeAdapter"}],"stateMutability":"view"},{"type":"function","name":"handlePayment","inputs":[{"name":"sender","type":"address","internalType":"address"},{"name":"data","type":"bytes","internalType":"bytes"},{"name":"tokenAddress","type":"address","internalType":"address"},{"name":"chainIds","type":"uint16[]","internalType":"uint16[]"}],"outputs":[],"stateMutability":"payable"},{"type":"event","name":"P2PPaymentSent","inputs":[{"name":"from","type":"address","indexed":true,"internalType":"address"},{"name":"to","type":"address","indexed":true,"internalType":"address"},{"name":"amount","type":"uint256","indexed":false,"internalType":"uint256"},{"name":"network","type":"string","indexed":false,"internalType":"string"},{"name":"token","type":"address","indexed":false,"internalType":"address"}],"anonymous":false},{"type":"error","name":"SafeERC20FailedOperation","inputs":[{"name":"token","type":"address","internalType":"address"}]}],"bytecode":{"object":"0x6080604052348015600e575f5ffd5b506040516108a33803806108a3833981016040819052602b916098565b6001600160a01b03811660755760405162461bcd60e51b815260206004820152600e60248201526d496e76616c69642062726964676560901b604482015260640160405180910390fd5b5f80546001600160a01b0319166001600160a01b039290921691909117905560c3565b5f6020828403121560a7575f5ffd5b81516001600160a01b038116811460bc575f5ffd5b9392505050565b6107d3806100d05f395ff3fe608060405260043610610028575f3560e01c806357dfa65b1461002c578063e78cea9214610041575b5f5ffd5b61003f61003a366004610529565b61007b565b005b34801561004c575f5ffd5b505f5461005f906001600160a01b031681565b6040516001600160a01b03909116815260200160405180910390f35b5f808061008a878901896105fe565b919450925090506001600160a01b0386161580156100f6573483146100f65760405162461bcd60e51b815260206004820152601c60248201527f4d69736d6174636820616d6f756e74207673206d73672e76616c75650000000060448201526064015b60405180910390fd5b815160208301207f67a6e076867e7a5d8437a614541151775e126940420d0fe4cd5368b8b4fdb76c016101e05780156101c6575f846001600160a01b0316846040515f6040518083038185875af1925050503d805f8114610172576040519150601f19603f3d011682016040523d82523d5f602084013e610177565b606091505b50509050806101c05760405162461bcd60e51b8152602060048201526015602482015274131bd8d85b081d1c985b9cd9995c8819985a5b1959605a1b60448201526064016100ed565b50610393565b6101db6001600160a01b0388168b86866103ee565b610393565b600185146102225760405162461bcd60e51b815260206004820152600f60248201526e135a5cdcda5b99c818da185a5b9259608a1b60448201526064016100ed565b5f86865f818110610235576102356106cc565b905060200201602081019061024a91906106e0565b90506001600160a01b03851642836102e6576102716001600160a01b038b168e30896103ee565b5f5460405163095ea7b360e01b81526001600160a01b03918216600482015260248101889052908b169063095ea7b3906044016020604051808303815f875af11580156102c0573d5f5f3e3d5ffd5b505050506040513d601f19601f820116820180604052508101906102e49190610708565b505b5f546001600160a01b031663852552ff85610301575f610303565b875b6040516001600160e01b031960e084901b1681526001600160a01b038e166004820152602481018a905261ffff871660448201526064810186905263ffffffff8516608482015260a40160206040518083038185885af1158015610369573d5f5f3e3d5ffd5b50505050506040513d601f19601f8201168201806040525081019061038e9190610727565b505050505b836001600160a01b03168a6001600160a01b03167fa0d2b804c4199f3dd05bf5c1f990416ff9c79a8fff001383bba40882ac49544485858b6040516103da9392919061074e565b60405180910390a350505050505050505050565b604080516001600160a01b0385811660248301528416604482015260648082018490528251808303909101815260849091019091526020810180516001600160e01b03166323b872dd60e01b17905261044890859061044e565b50505050565b5f5f60205f8451602086015f885af18061046d576040513d5f823e3d81fd5b50505f513d91508115610484578060011415610491565b6001600160a01b0384163b155b1561044857604051635274afe760e01b81526001600160a01b03851660048201526024016100ed565b6001600160a01b03811681146104ce575f5ffd5b50565b80356104dc816104ba565b919050565b5f5f83601f8401126104f1575f5ffd5b50813567ffffffffffffffff811115610508575f5ffd5b6020830191508360208260051b8501011115610522575f5ffd5b9250929050565b5f5f5f5f5f5f6080878903121561053e575f5ffd5b8635610549816104ba565b9550602087013567ffffffffffffffff811115610564575f5ffd5b8701601f81018913610574575f5ffd5b803567ffffffffffffffff81111561058a575f5ffd5b89602082840101111561059b575f5ffd5b602091909101955093506105b1604088016104d1565b9250606087013567ffffffffffffffff8111156105cc575f5ffd5b6105d889828a016104e1565b979a9699509497509295939492505050565b634e487b7160e01b5f52604160045260245ffd5b5f5f5f60608486031215610610575f5ffd5b833561061b816104ba565b925060208401359150604084013567ffffffffffffffff81111561063d575f5ffd5b8401601f8101861361064d575f5ffd5b803567ffffffffffffffff811115610667576106676105ea565b604051601f8201601f19908116603f0116810167ffffffffffffffff81118282101715610696576106966105ea565b6040528181528282016020018810156106ad575f5ffd5b816020840160208301375f602083830101528093505050509250925092565b634e487b7160e01b5f52603260045260245ffd5b5f602082840312156106f0575f5ffd5b813561ffff81168114610701575f5ffd5b9392505050565b5f60208284031215610718575f5ffd5b81518015158114610701575f5ffd5b5f60208284031215610737575f5ffd5b815167ffffffffffffffff81168114610701575f5ffd5b838152606060208201525f83518060608401528060208601608085015e5f8382016080908101919091526001600160a01b03949094166040840152601f01601f1916909101909101939250505056fea2646970667358221220f9ec43411d73038e36191a7ff76ec35148a768ae88c99f159b8113d59a91bb0d64736f6c634300081c0033","linkReferences":{}},"methodIdentifiers":{"bridge()":"e78cea92","handlePayment(address,bytes,address,uint16[])":"57dfa65b"},"id":4}