{"abi":[{"type":"constructor","inputs":[{"name":"_bridge","type":"address","internalType":"address"}],"stateMutability":"nonpayable"},{"type":"function","name":"ADMIN_ROLE","inputs":[],"outputs":[{"name":"","type":"bytes32","internalType":"bytes32"}],"stateMutability":"view"},{"type":"function","name":"DEFAULT_ADMIN_ROLE","inputs":[],"outputs":[{"name":"","type":"bytes32","internalType":"bytes32"}],"stateMutability":"view"},{"type":"function","name":"bridge","inputs":[],"outputs":[{"name":"","type":"address","internalType":"contract BridgeAdapter"}],"stateMutability":"view"},{"type":"function","name":"getRoleAdmin","inputs":[{"name":"role","type":"bytes32","internalType":"bytes32"}],"outputs":[{"name":"","type":"bytes32","internalType":"bytes32"}],"stateMutability":"view"},{"type":"function","name":"grantRole","inputs":[{"name":"role","type":"bytes32","internalType":"bytes32"},{"name":"account","type":"address","internalType":"address"}],"outputs":[],"stateMutability":"nonpayable"},{"type":"function","name":"hasRole","inputs":[{"name":"role","type":"bytes32","internalType":"bytes32"},{"name":"account","type":"address","internalType":"address"}],"outputs":[{"name":"","type":"bool","internalType":"bool"}],"stateMutability":"view"},{"type":"function","name":"pause","inputs":[],"outputs":[],"stateMutability":"nonpayable"},{"type":"function","name":"paused","inputs":[],"outputs":[{"name":"","type":"bool","internalType":"bool"}],"stateMutability":"view"},{"type":"function","name":"paymentModules","inputs":[{"name":"","type":"string","internalType":"string"}],"outputs":[{"name":"","type":"address","internalType":"contract IPaymentModule"}],"stateMutability":"view"},{"type":"function","name":"renounceRole","inputs":[{"name":"role","type":"bytes32","internalType":"bytes32"},{"name":"callerConfirmation","type":"address","internalType":"address"}],"outputs":[],"stateMutability":"nonpayable"},{"type":"function","name":"revokeRole","inputs":[{"name":"role","type":"bytes32","internalType":"bytes32"},{"name":"account","type":"address","internalType":"address"}],"outputs":[],"stateMutability":"nonpayable"},{"type":"function","name":"sendPayment","inputs":[{"name":"paymentType","type":"string","internalType":"string"},{"name":"data","type":"bytes","internalType":"bytes"},{"name":"tokenAddress","type":"address","internalType":"address"},{"name":"chainIds","type":"uint16[]","internalType":"uint16[]"}],"outputs":[],"stateMutability":"payable"},{"type":"function","name":"setPaymentModule","inputs":[{"name":"paymentType","type":"string","internalType":"string"},{"name":"module","type":"address","internalType":"address"}],"outputs":[],"stateMutability":"nonpayable"},{"type":"function","name":"supportsInterface","inputs":[{"name":"interfaceId","type":"bytes4","internalType":"bytes4"}],"outputs":[{"name":"","type":"bool","internalType":"bool"}],"stateMutability":"view"},{"type":"function","name":"unpause","inputs":[],"outputs":[],"stateMutability":"nonpayable"},{"type":"function","name":"updateBridge","inputs":[{"name":"_bridge","type":"address","internalType":"address"}],"outputs":[],"stateMutability":"nonpayable"},{"type":"event","name":"ModuleUpdated","inputs":[{"name":"paymentType","type":"string","indexed":false,"internalType":"string"},{"name":"module","type":"address","indexed":false,"internalType":"address"}],"anonymous":false},{"type":"event","name":"Paused","inputs":[{"name":"account","type":"address","indexed":false,"internalType":"address"}],"anonymous":false},{"type":"event","name":"PaymentDelegated","inputs":[{"name":"from","type":"address","indexed":true,"internalType":"address"},{"name":"paymentType","type":"string","indexed":false,"internalType":"string"},{"name":"value","type":"uint256","indexed":false,"internalType":"uint256"},{"name":"token","type":"address","indexed":false,"internalType":"address"},{"name":"chainIds","type":"uint16[]","indexed":false,"internalType":"uint16[]"}],"anonymous":false},{"type":"event","name":"RoleAdminChanged","inputs":[{"name":"role","type":"bytes32","indexed":true,"internalType":"bytes32"},{"name":"previousAdminRole","type":"bytes32","indexed":true,"internalType":"bytes32"},{"name":"newAdminRole","type":"bytes32","indexed":true,"internalType":"bytes32"}],"anonymous":false},{"type":"event","name":"RoleGranted","inputs":[{"name":"role","type":"bytes32","indexed":true,"internalType":"bytes32"},{"name":"account","type":"address","indexed":true,"internalType":"address"},{"name":"sender","type":"address","indexed":true,"internalType":"address"}],"anonymous":false},{"type":"event","name":"RoleRevoked","inputs":[{"name":"role","type":"bytes32","indexed":true,"internalType":"bytes32"},{"name":"account","type":"address","indexed":true,"internalType":"address"},{"name":"sender","type":"address","indexed":true,"internalType":"address"}],"anonymous":false},{"type":"event","name":"Unpaused","inputs":[{"name":"account","type":"address","indexed":false,"internalType":"address"}],"anonymous":false},{"type":"error","name":"AccessControlBadConfirmation","inputs":[]},{"type":"error","name":"AccessControlUnauthorizedAccount","inputs":[{"name":"account","type":"address","internalType":"address"},{"name":"neededRole","type":"bytes32","internalType":"bytes32"}]},{"type":"error","name":"EnforcedPause","inputs":[]},{"type":"error","name":"ExpectedPause","inputs":[]}],"bytecode":{"object":"0x608060405234801561000f575f5ffd5b50604051610eef380380610eef83398101604081905261002e91610132565b6100385f33610089565b506100637fa49807205ce4d355092ef5a8a18f56e8913cf4a201fbe287825b095693c2177533610089565b50600380546001600160a01b0319166001600160a01b039290921691909117905561015f565b5f828152602081815260408083206001600160a01b038516845290915281205460ff16610129575f838152602081815260408083206001600160a01b03861684529091529020805460ff191660011790556100e13390565b6001600160a01b0316826001600160a01b0316847f2f8788117e7eff1d82e926ec794901d17c78024a50270940304540a733656f0d60405160405180910390a450600161012c565b505f5b92915050565b5f60208284031215610142575f5ffd5b81516001600160a01b0381168114610158575f5ffd5b9392505050565b610d838061016c5f395ff3fe6080604052600436106100ef575f3560e01c806368b637c21161008757806391d148541161005757806391d14854146102ab578063a217fddf146102ca578063d547741f146102dd578063e78cea92146102fc575f5ffd5b806368b637c2146102395780636eb382121461025857806375b238fc146102775780638456cb5914610297575f5ffd5b80633f4ba83a116100c25780633f4ba83a146101a3578063593c19ac146101b75780635c975abb1461020f57806364edd86e14610226575f5ffd5b806301ffc9a7146100f3578063248a9ca3146101275780632f2ff15d1461016357806336568abe14610184575b5f5ffd5b3480156100fe575f5ffd5b5061011261010d366004610914565b61031b565b60405190151581526020015b60405180910390f35b348015610132575f5ffd5b50610155610141366004610942565b5f9081526020819052604090206001015490565b60405190815260200161011e565b34801561016e575f5ffd5b5061018261017d366004610974565b610351565b005b34801561018f575f5ffd5b5061018261019e366004610974565b61037b565b3480156101ae575f5ffd5b506101826103b3565b3480156101c2575f5ffd5b506101f76101d13660046109b2565b80516020818301810180516002825292820191909301209152546001600160a01b031681565b6040516001600160a01b03909116815260200161011e565b34801561021a575f5ffd5b5060015460ff16610112565b610182610234366004610aaa565b6103d5565b348015610244575f5ffd5b50610182610253366004610b8c565b61057c565b348015610263575f5ffd5b50610182610272366004610bdc565b61065a565b348015610282575f5ffd5b506101555f516020610d2e5f395f51905f5281565b3480156102a2575f5ffd5b50610182610694565b3480156102b6575f5ffd5b506101126102c5366004610974565b6106b3565b3480156102d5575f5ffd5b506101555f81565b3480156102e8575f5ffd5b506101826102f7366004610974565b6106db565b348015610307575f5ffd5b506003546101f7906001600160a01b031681565b5f6001600160e01b03198216637965db0b60e01b148061034b57506301ffc9a760e01b6001600160e01b03198316145b92915050565b5f8281526020819052604090206001015461036b816106ff565b6103758383610709565b50505050565b6001600160a01b03811633146103a45760405163334bd91960e11b815260040160405180910390fd5b6103ae8282610798565b505050565b5f516020610d2e5f395f51905f526103ca816106ff565b6103d2610801565b50565b6103dd610853565b6001600160a01b03831661043f575f341161043f5760405162461bcd60e51b815260206004820152601b60248201527f5a65726f2076616c756520666f72206e617469766520746f6b656e000000000060448201526064015b60405180910390fd5b5f60028888604051610452929190610bf5565b908152604051908190036020019020546001600160a01b03169050806104b15760405162461bcd60e51b8152602060048201526014602482015273556e6b6e6f776e207061796d656e74207479706560601b6044820152606401610436565b6001600160a01b03808216906357dfa65b908616156104d0575f6104d2565b345b3389898989896040518863ffffffff1660e01b81526004016104f996959493929190610c73565b5f604051808303818588803b158015610510575f5ffd5b505af1158015610522573d5f5f3e3d5ffd5b5050505050336001600160a01b03167f4d98108fc41fbb71b6f2bf0e776178e0e3ab73986a3506c309fd8f3e65022c1889893488888860405161056a96959493929190610cc6565b60405180910390a25050505050505050565b5f516020610d2e5f395f51905f52610593816106ff565b6001600160a01b0382166105d85760405162461bcd60e51b815260206004820152600c60248201526b5a65726f206164647265737360a01b6044820152606401610436565b81600285856040516105eb929190610bf5565b90815260405190819003602001812080546001600160a01b03939093166001600160a01b0319909316929092179091557f9a65d3ab497a14ced7d0123f7db0415db7b263e28d7b16267d6f3497224a90549061064c90869086908690610d02565b60405180910390a150505050565b5f516020610d2e5f395f51905f52610671816106ff565b50600380546001600160a01b0319166001600160a01b0392909216919091179055565b5f516020610d2e5f395f51905f526106ab816106ff565b6103d2610879565b5f918252602082815260408084206001600160a01b0393909316845291905290205460ff1690565b5f828152602081905260409020600101546106f5816106ff565b6103758383610798565b6103d281336108b4565b5f61071483836106b3565b610791575f838152602081815260408083206001600160a01b03861684529091529020805460ff191660011790556107493390565b6001600160a01b0316826001600160a01b0316847f2f8788117e7eff1d82e926ec794901d17c78024a50270940304540a733656f0d60405160405180910390a450600161034b565b505f61034b565b5f6107a383836106b3565b15610791575f838152602081815260408083206001600160a01b0386168085529252808320805460ff1916905551339286917ff6391f5c32d9c69d2a47ea670b442974b53935d1edc7fd64eb21e047a839171b9190a450600161034b565b6108096108f1565b6001805460ff191690557f5db9ee0a495bf2e6ff9c91a7834c1ba4fdd244a5e8aa4e537bd38aeae4b073aa335b6040516001600160a01b03909116815260200160405180910390a1565b60015460ff16156108775760405163d93c066560e01b815260040160405180910390fd5b565b610881610853565b6001805460ff1916811790557f62e78cea01bee320cd4e420270b5ea74000d11b0c9f74754ebdbfc544b05a25833610836565b6108be82826106b3565b6108ed5760405163e2517d3f60e01b81526001600160a01b038216600482015260248101839052604401610436565b5050565b60015460ff1661087757604051638dfc202b60e01b815260040160405180910390fd5b5f60208284031215610924575f5ffd5b81356001600160e01b03198116811461093b575f5ffd5b9392505050565b5f60208284031215610952575f5ffd5b5035919050565b80356001600160a01b038116811461096f575f5ffd5b919050565b5f5f60408385031215610985575f5ffd5b8235915061099560208401610959565b90509250929050565b634e487b7160e01b5f52604160045260245ffd5b5f602082840312156109c2575f5ffd5b813567ffffffffffffffff8111156109d8575f5ffd5b8201601f810184136109e8575f5ffd5b803567ffffffffffffffff811115610a0257610a0261099e565b604051601f8201601f19908116603f0116810167ffffffffffffffff81118282101715610a3157610a3161099e565b604052818152828201602001861015610a48575f5ffd5b816020840160208301375f91810160200191909152949350505050565b5f5f83601f840112610a75575f5ffd5b50813567ffffffffffffffff811115610a8c575f5ffd5b602083019150836020828501011115610aa3575f5ffd5b9250929050565b5f5f5f5f5f5f5f6080888a031215610ac0575f5ffd5b873567ffffffffffffffff811115610ad6575f5ffd5b610ae28a828b01610a65565b909850965050602088013567ffffffffffffffff811115610b01575f5ffd5b610b0d8a828b01610a65565b9096509450610b20905060408901610959565b9250606088013567ffffffffffffffff811115610b3b575f5ffd5b8801601f81018a13610b4b575f5ffd5b803567ffffffffffffffff811115610b61575f5ffd5b8a60208260051b8401011115610b75575f5ffd5b602082019350809250505092959891949750929550565b5f5f5f60408486031215610b9e575f5ffd5b833567ffffffffffffffff811115610bb4575f5ffd5b610bc086828701610a65565b9094509250610bd3905060208501610959565b90509250925092565b5f60208284031215610bec575f5ffd5b61093b82610959565b818382375f9101908152919050565b81835281816020850137505f828201602090810191909152601f909101601f19169091010190565b8183526020830192505f815f5b84811015610c6957813561ffff8116808214610c53575f5ffd5b8752506020958601959190910190600101610c39565b5093949350505050565b6001600160a01b03871681526080602082018190525f90610c979083018789610c04565b6001600160a01b03861660408401528281036060840152610cb9818587610c2c565b9998505050505050505050565b608081525f610cd960808301888a610c04565b602083018790526001600160a01b03861660408401528281036060840152610cb9818587610c2c565b604081525f610d15604083018587610c04565b905060018060a01b038316602083015294935050505056fea49807205ce4d355092ef5a8a18f56e8913cf4a201fbe287825b095693c21775a2646970667358221220f37b370f51a1615f9abe944ea3900509911f3fcae74bf41f5c49d37892a32be764736f6c634300081c0033","linkReferences":{}},"methodIdentifiers":{"ADMIN_ROLE()":"75b238fc","DEFAULT_ADMIN_ROLE()":"a217fddf","bridge()":"e78cea92","getRoleAdmin(bytes32)":"248a9ca3","grantRole(bytes32,address)":"2f2ff15d","hasRole(bytes32,address)":"91d14854","pause()":"8456cb59","paused()":"5c975abb","paymentModules(string)":"593c19ac","renounceRole(bytes32,address)":"36568abe","revokeRole(bytes32,address)":"d547741f","sendPayment(string,bytes,address,uint16[])":"64edd86e","setPaymentModule(string,address)":"68b637c2","supportsInterface(bytes4)":"01ffc9a7","unpause()":"3f4ba83a","updateBridge(address)":"6eb38212"},"id":1}