{"abi":[{"type":"constructor","inputs":[{"name":"_bridge","type":"address","internalType":"address"}],"stateMutability":"nonpayable"},{"type":"function","name":"bridge","inputs":[],"outputs":[{"name":"","type":"address","internalType":"contract BridgeAdapter"}],"stateMutability":"view"},{"type":"function","name":"handlePayment","inputs":[{"name":"sender","type":"address","internalType":"address"},{"name":"data","type":"bytes","internalType":"bytes"},{"name":"tokenAddress","type":"address","internalType":"address"},{"name":"chainIds","type":"uint16[]","internalType":"uint16[]"}],"outputs":[],"stateMutability":"payable"},{"type":"event","name":"PayrollDistributed","inputs":[{"name":"from","type":"address","indexed":true,"internalType":"address"},{"name":"recipients","type":"address[]","indexed":false,"internalType":"address[]"},{"name":"amounts","type":"uint256[]","indexed":false,"internalType":"uint256[]"},{"name":"networks","type":"string[]","indexed":false,"internalType":"string[]"},{"name":"token","type":"address","indexed":false,"internalType":"address"}],"anonymous":false},{"type":"error","name":"SafeERC20FailedOperation","inputs":[{"name":"token","type":"address","internalType":"address"}]}],"bytecode":{"object":"0x6080604052348015600e575f5ffd5b50604051610d2b380380610d2b833981016040819052602b916098565b6001600160a01b03811660755760405162461bcd60e51b815260206004820152600e60248201526d496e76616c69642062726964676560901b604482015260640160405180910390fd5b5f80546001600160a01b0319166001600160a01b039290921691909117905560c3565b5f6020828403121560a7575f5ffd5b81516001600160a01b038116811460bc575f5ffd5b9392505050565b610c5b806100d05f395ff3fe608060405260043610610028575f3560e01c806357dfa65b1461002c578063e78cea9214610041575b5f5ffd5b61003f61003a3660046106f6565b61007b565b005b34801561004c575f5ffd5b505f5461005f906001600160a01b031681565b6040516001600160a01b03909116815260200160405180910390f35b5f808061008a87890189610965565b925092509250815183511480156100a2575080518351145b6100e55760405162461bcd60e51b815260206004820152600f60248201526e098cadccee8d040dad2e6dac2e8c6d608b1b60448201526064015b60405180910390fd5b6001600160a01b038616155f805b845181101561012b5784818151811061010e5761010e610a51565b6020026020010151826101219190610a65565b91506001016100f3565b508115610181573481146101815760405162461bcd60e51b815260206004820152601b60248201527f4d69736d6174636820746f74616c207673206d73672e76616c7565000000000060448201526064016100dc565b5f5b8551811015610572577f98591f89798185a27bc859ebabeeae88a1ed96bfbdf2f01b32ac97474b0248948482815181106101bf576101bf610a51565b602002602001015180519060200120036102ff5782156102a8575f8682815181106101ec576101ec610a51565b60200260200101516001600160a01b031686838151811061020f5761020f610a51565b60200260200101516040515f6040518083038185875af1925050503d805f8114610254576040519150601f19603f3d011682016040523d82523d5f602084013e610259565b606091505b50509050806102a25760405162461bcd60e51b8152602060048201526015602482015274131bd8d85b081d1c985b9cd9995c8819985a5b1959605a1b60448201526064016100dc565b5061056a565b6102fa8c8783815181106102be576102be610a51565b60200260200101518784815181106102d8576102d8610a51565b60200260200101518c6001600160a01b03166105c7909392919063ffffffff16565b61056a565b855187146103425760405162461bcd60e51b815260206004820152601060248201526f4d697373696e6720636861696e49647360801b60448201526064016100dc565b5f88888381811061035557610355610a51565b905060200201602081019061036a9190610a8a565b90505f87838151811061037f5761037f610a51565b60200260200101516001600160a01b03165f1b90505f83426103a19190610a65565b905085610487576103e18f308a87815181106103bf576103bf610a51565b60200260200101518f6001600160a01b03166105c7909392919063ffffffff16565b5f5488516001600160a01b03808f169263095ea7b3929116908b908890811061040c5761040c610a51565b60200260200101516040518363ffffffff1660e01b81526004016104459291906001600160a01b03929092168252602082015260400190565b6020604051808303815f875af1158015610461573d5f5f3e3d5ffd5b505050506040513d601f19601f820116820180604052508101906104859190610ab2565b505b5f546001600160a01b031663852552ff876104a2575f6104bd565b8986815181106104b4576104b4610a51565b60200260200101515b8e8b88815181106104d0576104d0610a51565b60209081029190910101516040516001600160e01b031960e086901b1681526001600160a01b039092166004830152602482015261ffff871660448201526064810186905263ffffffff8516608482015260a40160206040518083038185885af1158015610540573d5f5f3e3d5ffd5b50505050506040513d601f19601f820116820180604052508101906105659190610ad1565b505050505b600101610183565b508a6001600160a01b03167fa72ab941cb03ac11be43a3bfaadcda9e3872de5e531d1aecce1e130df19256368686868c6040516105b29493929190610b72565b60405180910390a25050505050505050505050565b604080516001600160a01b0385811660248301528416604482015260648082018490528251808303909101815260849091019091526020810180516001600160e01b03166323b872dd60e01b179052610621908590610627565b50505050565b5f5f60205f8451602086015f885af180610646576040513d5f823e3d81fd5b50505f513d9150811561065d57806001141561066a565b6001600160a01b0384163b155b1561062157604051635274afe760e01b81526001600160a01b03851660048201526024016100dc565b80356001600160a01b03811681146106a9575f5ffd5b919050565b5f5f83601f8401126106be575f5ffd5b50813567ffffffffffffffff8111156106d5575f5ffd5b6020830191508360208260051b85010111156106ef575f5ffd5b9250929050565b5f5f5f5f5f5f6080878903121561070b575f5ffd5b61071487610693565b9550602087013567ffffffffffffffff81111561072f575f5ffd5b8701601f8101891361073f575f5ffd5b803567ffffffffffffffff811115610755575f5ffd5b896020828401011115610766575f5ffd5b6020919091019550935061077c60408801610693565b9250606087013567ffffffffffffffff811115610797575f5ffd5b6107a389828a016106ae565b979a9699509497509295939492505050565b634e487b7160e01b5f52604160045260245ffd5b604051601f8201601f1916810167ffffffffffffffff811182821017156107f2576107f26107b5565b604052919050565b5f67ffffffffffffffff821115610813576108136107b5565b5060051b60200190565b5f82601f83011261082c575f5ffd5b813561083f61083a826107fa565b6107c9565b8082825260208201915060208360051b860101925085831115610860575f5ffd5b602085015b8381101561087d578035835260209283019201610865565b5095945050505050565b5f82601f830112610896575f5ffd5b81356108a461083a826107fa565b8082825260208201915060208360051b8601019250858311156108c5575f5ffd5b602085015b8381101561087d57803567ffffffffffffffff8111156108e8575f5ffd5b8601603f810188136108f8575f5ffd5b602081013567ffffffffffffffff811115610915576109156107b5565b610928601f8201601f19166020016107c9565b8181526040838301018a101561093c575f5ffd5b816040840160208301375f602083830101528086525050506020830192506020810190506108ca565b5f5f5f60608486031215610977575f5ffd5b833567ffffffffffffffff81111561098d575f5ffd5b8401601f8101861361099d575f5ffd5b80356109ab61083a826107fa565b8082825260208201915060208360051b8501019250888311156109cc575f5ffd5b6020840193505b828410156109f5576109e484610693565b8252602093840193909101906109d3565b9550505050602084013567ffffffffffffffff811115610a13575f5ffd5b610a1f8682870161081d565b925050604084013567ffffffffffffffff811115610a3b575f5ffd5b610a4786828701610887565b9150509250925092565b634e487b7160e01b5f52603260045260245ffd5b80820180821115610a8457634e487b7160e01b5f52601160045260245ffd5b92915050565b5f60208284031215610a9a575f5ffd5b813561ffff81168114610aab575f5ffd5b9392505050565b5f60208284031215610ac2575f5ffd5b81518015158114610aab575f5ffd5b5f60208284031215610ae1575f5ffd5b815167ffffffffffffffff81168114610aab575f5ffd5b5f82825180855260208501945060208160051b830101602085015f5b83811015610b6657601f19858403018852815180518085528060208301602087015e5f602082870101526020601f19601f83011686010194505050602082019150602088019750600181019050610b14565b50909695505050505050565b608080825285519082018190525f90602087019060a0840190835b81811015610bb45783516001600160a01b0316835260209384019390920191600101610b8d565b5050838103602080860191909152875180835291810192508701905f5b81811015610bef578251845260209384019390920191600101610bd1565b5050508281036040840152610c048186610af8565b915050610c1c60608301846001600160a01b03169052565b9594505050505056fea2646970667358221220f8d2dd20a3668bf45e7cb5a38c93b4874bddcf71a4d5b6f432fe10f03ac2d7bd64736f6c634300081c0033","linkReferences":{}},"methodIdentifiers":{"bridge()":"e78cea92","handlePayment(address,bytes,address,uint16[])":"57dfa65b"},"id":4}